:060000000A128A11122809
:10000800FE00030E83120313A2000408A3000A08CB
:10001800A4007F08A5000A128A112D2B0A128A153E
:10002800532D83120313CF003D30C3004308C6008D
:10003800FB295008253A0319222823282F2850087D
:10004800C3004F0884004308831380000130C300B5
:100058004308CF07FB29CD01CE01CC013B283B2823
:100068004C150130C3004308BC073B2848283C080E
:1000780084000A128A110A270A128A11303A0319CF
:100088003428482848283B283C0884000A128A114A
:100098000A270A128A110A128A15B8250A128A1121
:1000A800031C57285828A22883120313CD01CE0118
:1000B8005D28831203134E08AF01AF074D08AE0148
:1000C800AE070A30B0000030B1000A128A151327B3
:1000D8000A128A11831203133C0884000A128A1137
:1000E8000A270A128A112E07C300003003180130AC
:1000F8002F07C4004308D03ECD0044080318013E32
:10010800FF3ECE000130C3004308BC073C08840012
:100118000A128A110A270A128A110A128A15B825A0
:100128000A128A11031899289A285D28A228A22859
:10013800A228112AB928B928FB29B9280130831225
:100148000313BC07FF303C0784000A128A110A27F0
:100158000A128A11D000003A0319112A643A0319C5
:10016800B9280D3A0319B928FB2983120313460845
:10017800840083130008C800840A0008C9000230FC
:10018800C3004308C607C91FCA28CB28D52803308F
:10019800C3004308CC04C809C909C80A0319C90A15
:1001A800D528D0010314D00D5008053A031DDD28C9
:1001B800DE28E028082908295008C3004307013E23
:1001C80084000A128A110A270A128A11C4000A1224
:1001D8008A110A270A128A11C50045084902031D17
:1001E800F728440848020318FA28FB28FD2808299C
:1001F80008290130C3004308D0075008053A031DF9
:1002080006290729E02808294E084D0403190D2955
:100218000E291A294C0803390319132914291A29F4
:10022800FF30CD070318CE0AFF30CE075008C300B1
:10023800C401C31BC4034408803AC5004E08803A71
:100248004502031D29294D08430203182C292D298D
:100258003B29831203135008C300C401C31BC40302
:100268004308CD024408031CCE03CE024029831262
:100278000313CD01CE0140294C1D43294429772978
:100288004C080339031949294A2956292D30C30036
:100298004F0884004308831380000130C3004308DB
:1002A800CF0756294E084D0403195B295C29AA2952
:1002B8005D293030C3004F08840043088313800051
:1002C8000130C3004308CF07FF30CD070318CE0A1B
:1002D800FF30CE074E084D04031D732974295D298C
:1002E800AA29AA29AA294E084D0403197C297D297F
:1002F80097297E292030C3004F08840043088313C0
:1003080080000130C3004308CF07FF30CD07031832
:10031800CE0AFF30CE074E084D04031D94299529B7
:100328007E29972997294C08033903199C299D2967
:10033800AA292D30C3004F08840043088313800086
:100348000130C3004308CF07AA29AA295008C300CF
:100358004308C700EF290A30B6000030B700470845
:10036800C3004307013E84000A128A110A270A12B1
:100378008A11AE000A128A110A270A128A11AF00DE
:100388004908B101B1074808B001B0070A128A113B
:100398001B260A128A11831203132F08B901B90701
:1003A8002E08B801B8070A128A114F270A128A11B3
:1003B800831203133608303EC4004408D0005008A6
:1003C800C3004F0884004308831380000130C30032
:1003D8004308CF07EF29FF30C3004308C707470882
:1003E800FF3A031DF829F929AF29FB29FB29013018
:1003F80083120313BC07FF303C0784000A128A11DA
:100408000A270A128A11C3004308D000D008031D26
:100418000E2A0F2A1D28112A112A831203134F08A6
:10042800840083138001182A080083160313881197
:1004380088100811081288120813881383120313EE
:100448008811881008118230B400DD30B300B30B76
:100458002B2AB40B2B2A302A303083120313B30013
:100468003308AE0000300A128A113F240A128A119A
:10047800823083120313B400DD30B300B30B422A79
:10048800B40B422A472A303083120313B3003308CF
:10049800AE0000300A128A113F240A128A118230F3
:1004A80083120313B400DD30B300B30B592AB40B25
:1004B800592A5E2A323083120313B3003308AE0080
:1004C80000300A128A113F240A128A1182308312DC
:1004D8000313B400DD30B300B30B702AB40B702AD9
:1004E800752A823083120313B400DD30B300B30BD6
:1004F8007B2AB40B7B2A802A823083120313B40030
:10050800DD30B300B30B862AB40B862A8B2A8D2ADA
:100518008D2A0A128A15CD270A128A110038031D5E
:10052800962A972A8D2A982A283083120313B30013
:100538003308AE0000300A128A113F240A128A11C9
:10054800A62AA62A0A128A15CD270A128A11003865
:10055800031DAF2AB02AA62AB12A08308312031332
:10056800B3003308AE0000300A128A113F240A1281
:100578008A11BF2ABF2A0A128A15CD270A128A11A0
:100588000038031DC82AC92ABF2ACA2A0C30831278
:100598000313B3003308AE0000300A128A113F2457
:1005A8000A128A11D82AD82A0A128A15CD270A12BD
:1005B8008A110038031DE12AE22AD82AE32A831285
:1005C8000313AE010314AE0D00300A128A113F2442
:1005D8000A128A11F02AF02A0A128A15CD270A125D
:1005E8008A110038031DF92AFA2AF02AFB2A043056
:1005F80083120313B3003308AE0000300A128A11C5
:100608003F240A128A11092B092B0A128A15CD27B1
:100618000A128A110038031D122B132B092B142BD5
:1006280083120313AE010314AE0D00300A128A11AF
:100638003F240A128A11212B212B0A128A15CD2751
:100648000A128A110038031D2A2B2B2B212B2C2B45
:100658000800831603130C1C322B332B902B8312A8
:1006680003130C1C382B392B902B5F08013EDF003D
:1006780060080318013E003EE0006008803AFF0071
:1006880080307F02031D4A2B3C305F02031C4D2B38
:100698004E2B872B83120313DF01E0015D08013E17
:1006A800DD005E080318013E003EDE005E08803A69
:1006B800FF0080307F02031D632B3C305D02031C6A
:1006C800662B672B872B83120313DD01DE015B0882
:1006D800013EDB005C080318013E003EDC005C08BC
:1006E800803AFF0080307F02031D7C2B18305B02AC
:1006F800031C7F2B802B872B83120313DB01DC0168
:10070800872B872B872B831203130C100A128A1549
:1007180047250A128A11902B831603138C1E952BDA
:10072800962B332C831203138C1E9B2B9C2B332C60
:1007380026300A128A1519260A128A1135308312B0
:100748000313A0002008F00026300A128A156B2730
:100758000A128A1171087004031DB32BB42BC62B1F
:100768000A128A158A250A128A111B300A128A155A
:1007780092260A128A1128300A128A15BD260A12F0
:100788008A112F2C831203132608D03EF000FF3065
:1007980003180030F1000A30F2000030F3000A12AA
:1007A8008A1568260A128A1183120313270870070C
:1007B800A0000030031801307107A1002008D03EC6
:1007C800DB0021080318013EFF3EDC002908D03E6B
:1007D800F000FF3003180030F1000A30F20000305A
:1007E800F3000A128A1568260A128A118312031363
:1007F8002A087007A0000030031801307107A10013
:100808002008D03EDD0021080318013EFF3EDE002F
:100818002C08D03EF000FF3003180030F1000A30F9
:10082800F2000030F3000A128A1568260A128A11AB
:10083800831203132D087007A0000030031801303D
:100848007107A1002008D03EDF0021080318013EEF
:10085800FF3EE0002F2C831203138C12332C8312DB
:100868002508FF0024088A0023088400220E83003C
:10087800FE0E7E0E090083120313B10083160313C4
:10088800081288120813881383120313881031087A
:10089800031D4F2C512C8814512C0630AF00AF0B80
:1008A800532C64008312031308110630AF00AF0BFA
:1008B8005B2C64008312031388112E08AF002F08E5
:1008C800B200320E0139AF002F0C03186C2C702CBB
:1008D800831203130816732C831203130812320EA3
:1008E800AF002F0C0139B000300C03187C2C802C81
:1008F800831203138816832C831203138812320E73
:10090800AF00AF0C2F0C0139B000300C03188D2C40
:10091800912C831203130817942C831203130813C2
:10092800320D320D0139AF002F0C03189C2CA02C6E
:10093800831203138817A32C83120313881306301A
:10094800AF00AF0BA52C6400831203138815063083
:10095800AF00AF0BAD2C640083120313881132086B
:100968000139AF002F0C0318BA2CBE2C83120313C5
:100978000816C12C831203130812320C0139AF0078
:100988002F0C0318C82CCC2C831203138816CF2CD9
:10099800831203138812320CAF002F0C0139B000F8
:1009A800300C0318D82CDC2C831203130817DF2C07
:1009B800831203130813320CAF00AF0C2F0C01394C
:1009C800B000300C0318E92CED2C831203138817A0
:1009D800F02C8312031388130630AF00AF0BF22CF0
:1009E80064008312031388150630AF00AF0BFA2C8E
:1009F80064008312031388110800F300831603139D
:100A080008128812081388138312031388107308B6
:100A1800031D0F2D112D8814112D0630F100F10B37
:100A2800132D64008312031308110630F100F10B33
:100A38001B2D64008312031388117008F1007108DC
:100A4800F400740E0139F100710C03182C2D302DAF
:100A5800831203130816332D831203130812740E1E
:100A6800F100710C0139F200720C03183C2D402D75
:100A7800831203138816432D831203138812740EEE
:100A8800F100F10C710C0139F200720C03184D2DB4
:100A9800512D831203130817542D831203130813BF
:100AA800740D740D0139F100710C03185C2D602D63
:100AB800831203138817632D8312031388130630D8
:100AC800F100F10B652D64008312031388150630BD
:100AD800F100F10B6D2D6400831203138811740863
:100AE8000139F100710C03187A2D7E2D831203133E
:100AF8000816812D831203130812740C0139F100B2
:100B0800710C0318882D8C2D8312031388168F2DD2
:100B1800831203138812740CF100710C0139F2006E
:100B2800720C0318982D9C2D8312031308179F2D00
:100B3800831203130813740CF100F10C710C0139C2
:100B4800F200720C0318A92DAD2D83120313881718
:100B5800B02D8312031388130630F100F10BB22D68
:100B680064008312031388150630F100F10BBA2DC7
:100B78006400831203138811080083120313B8005A
:100B8800102EAE010314AE0D00300A128A113F2454
:100B98000A128A11D02DD02D0A128A15CD270A12D1
:100BA8008A110038031DD92DDA2DD02D1A2E1A2EB0
:100BB80083120313B3010314B30D00300A128A150C
:100BC800E8260A128A111A2E8312031338080A1209
:100BD8008A15A1250A128A11031CF32DF42D1A2E49
:100BE800831203133808B7003708AE0001300A1221
:100BF8008A113F240A128A11022E022E0A128A151D
:100C0800CD270A128A110038031D0B2E0C2E022E36
:100C18001A2E1A2E1A2E1A2E8312031338080A3A7D
:100C28000319DC2D063A0319C52DE82D0800831297
:100C38000313B401B5012F082E040319242E252E01
:100C4800632EB3010314B30D352E01300310AE0D1E
:100C5800AF0DFF3E031D2A2E0130B2003208B30744
:100C6800352EAF1F382E392E292E3B2E3B2E013024
:100C78000310B40DB50DFF3E031D3C2E2F083102A5
:100C8800031D482E2E083002031C4B2E4C2E542ECA
:100C98002E08B0022F08031CB103B1023414542EDD
:100CA80001300310AF0CAE0CFF3E031D552E013072
:100CB800B302031D602E612E3B2E632E632E350872
:100CC800AF01AF073408AE01AE076A2E0800FA007C
:100CD800B22EF0010314F00D00300A128A1101251A
:100CE8000A128A11782E782E0A128A159A270A1261
:100CF8008A110038031D812E822E782EBA2EBA2E24
:100D0800F5010314F50D00300A128A153F260A1260
:100D18008A11BA2E7A080A128A1575250A128A11BA
:100D2800031C972E982EBA2E7A08F9007908F0003D
:100D380001300A128A1101250A128A11A42EA42E42
:100D48000A128A159A270A128A110038031DAD2E35
:100D5800AE2EA42EBA2EBA2EBA2EBA2E7A080A3A77
:100D68000319842E063A03196D2E8E2E08000A12D6
:100D78008A15E6250A128A110B3083120313D7004D
:100D88005708BC005208BE01BE075108BD01BD0787
:100D98005408C001C0075308BF01BF075608C20165
:100DA800C2075508C101C107A0300A128A111520CF
:100DB8000A128A11A03083120313B9000030BA0056
:100DC8000A128A11D2270A128A11A0308312031339
:100DD800AF000030B0000A128A153F270A128A11A4
:100DE8000800F62E831203138C1EFB2EFC2EF62E03
:100DF800FD2E1A08FF2E0800FF1B0A2F83137F18E9
:100E080083170008840A0319FF0A080007308A00BC
:100E18000408840A82070034013400340A34003498
:100E280064340034E834033410342734253430343F
:100E3800323464343A3425343034323464343A3415
:100E480025343034323464340A340034493420349C
:100E580061346D34203431343634663438343834BF
:100E680037340A34003443346F346E346E346534A6
:100E78006334743469346E3467342E342E34003459
:100E88007034693463343134363466343834383441
:100E980037343F34003483120313370836040319F8
:100EA800562F572F8D2FBB010314BB0D672F013011
:100EB8000310B60DB70DFF3E031D5C2F0130BA00BD
:100EC8003A08BB07672FB71F6A2F6B2F5B2F6D2F51
:100ED8006D2F37083902031D732F36083802031C9B
:100EE800762F772F7E2F3608B8023708031CB903F0
:100EF800B9027E2F01300310B70CB60CFF3E031D5C
:100F08007F2F0130BB02031D8A2F8B2F6D2F8D2F52
:100F18008D2F3908B701B7073808B601B607942FDF
:100F280008000A128A1119220A128A110A128A154D
:100F3800FF250A128A110A128A15CF250A128A1168
:100F4800A52F831203135C08D201D2075B08D101D5
:100F5800D1075E08D401D4075D08D301D307600820
:100F6800D601D6075F08D501D5070A128A11BB2614
:100F78000A128A11033083120313DA008A30D90067
:100F88005630D800D80BC62FD90BC62FDA0BC62F70
:100F9800CD2FA52FA52F0A128A111228EC2F831204
:100FA80003133A08FF00390884000A128A1100273F
:100FB8000A128A110A128A11C1250A128A110130ED
:100FC80083120313B9070318BA0A0030BA07EC2FC3
:100FD800831203133A08FF00390884000A128A11A1
:100FE80000270A128A110038031DFB2FFC2FD32F6C
:040FF800FD2F0800C1
:101A8E008030831203138F008E0108008030831282
:101A9E0003138F008E010800DB01DC01DD01DE0186
:101AAE00DF01E00183010A128A11952FF0005F2DEC
:101ABE00831203130C1E642D652D5F2D662D700889
:101ACE009900080083120313AE006D2D0C1E702DAD
:101ADE00712D6D2D722D2E0899000800F100F00168
:101AEE007F30710203187C2D7D2D872D20307102E1
:101AFE00031C822D832D872DF0010314F00D872DED
:101B0E00700C892D0800F0010314F00D00300A123C
:101B1E008A1101250A128A15952D952D0A128A15FC
:101B2E009A270A128A150038031D9E2D9F2D952D7A
:101B3E00A02D080083120313AF00AE017F302F02D9
:101B4E000318AA2DAB2DB52D20302F02031CB02D5E
:101B5E00B12DB52DAE010314AE0DB52D2E0CB72D36
:101B6E00080083120313AF00AE013A302F020318A0
:101B7E00C12DC22DCC2D30302F02031CC72DC82DE8
:101B8E00CC2DAE010314AE0DCC2D2E0CCE2D080097
:101B9E008B170B17831603138C1683120313101453
:101BAE00901410159015101290120C10831603132A
:101BBE000C140A128A154D250A128A150800831272
:101BCE000313AE010314AE0D00300A128A113F2426
:101BDE000A128A15F32DF32D0A128A15CD270A1231
:101BEE008A150038031DFC2DFD2DF32DFE2D08004A
:101BFE001930831603139900181518128312031344
:101C0E00981718169812831603130C128C121813A9
:101C1E0083120313181383160313981298160713BF
:101C2E0087170800F1000A128A11F5260A128A1582
:101C3E00F00071088400700883138000362E013086
:101C4E00F0007008F1070A128A11F5260A128A1599
:101C5E00F00071088400700883138000362E71081E
:101C6E0084008008031D3C2E3D2E262E3E2E08009D
:101C7E00F7007508031D442E492E4030F6007608F5
:101C8E00F8004B2EF8014B2E7708F6007608F80771
:101C9E0078088038F6007608F00000300A128A11B3
:101CAE0001250A128A155C2E5C2E0A128A159A27B5
:101CBE000A128A150038031D652E662E5C2E672EBD
:101CCE000800F401F5016B2E701C6E2E6F2E752E12
:101CDE007208F4070318F50A7308F50701300310AC
:101CEE00F20DF30DFF3E031D762E01300310F10CA5
:101CFE00F00CFF3E031D7D2E71087004031D882E0F
:101D0E00892E6B2E8A2E7508F101F1077408F001E9
:101D1E00F007912E0800F100AB2E72088312031308
:101D2E00FF00710884000A128A1100270A128A1510
:101D3E000A128A155D250A128A150130F107031859
:101D4E00F20A0030F207AB2E720883120313FF0063
:101D5E00710884000A128A1100270A128A150038A7
:101D6E00031DBA2EBB2E942EBC2E0800FB00D62EC1
:101D7E007C0883120313FF007B0884000A128A1169
:101D8E0000270A128A150A128A116B260A128A1560
:101D9E000130FB070318FC0A0030FC07D62E7C0826
:101DAE0083120313FF007B0884000A128A11002796
:101DBE000A128A150038031DE52EE62EBF2EE72ED9
:101DCE00080083120313B5003308031DEF2EF42E03
:101DDE004030B4003408B600F62EB601F62E3508A3
:101DEE00B4003408B60736088038B4003408AE00A4
:101DFE0000300A128A113F240A128A15072F072F64
:101E0E000A128A15CD270A128A150038031D102FC3
:101E1E00112F072F122F080083120313B201B301E3
:101E2E00182F2E1C1B2F1C2F222F3008B207031821
:101E3E00B30A3108B30701300310B00DB10DFF3EE8
:101E4E00031D232F01300310AF0CAE0CFF3E031DFC
:101E5E002A2F2F082E04031D352F362F182F372F1C
:101E6E003308AF01AF073208AE01AE073E2F0800B0
:101E7E00592F831203133008FF002F0884000A1213
:101E8E008A1100270A128A150A128A1569250A1262
:101E9E008A15013083120313AF070318B00A0030FE
:101EAE00B007592F831203133008FF002F08840048
:101EBE000A128A1100270A128A150038031D682F8C
:101ECE00692F402F6A2F0800F5006E2F6E2F7508B0
:101EDE00840083130008F2000130F007FF30700712
:101EEE0084000A128A110A270A128A15FF3A013E45
:101EFE007207F3007308F400F408031D872F882F70
:101F0E00932F750884000130F5078008031D902F6C
:101F1E00912F6E2F932F932F7408F000F101F01B69
:101F2E00F103992F08008316031308168816081755
:101F3E00881783120313081588100630F000F00B73
:101F4E00A62F64008312031388150630F000F00BE1
:101F5E00AE2F6400003083120313881B0130F00093
:101F6E007008F10088110630F000F00BBC2F6400F1
:101F7E008312031388150630F000F00BC42F640093
:101F8E008312031388117108CC2F080083160313D4
:101F9E000816881608178817831203130815881059
:101FAE000630AE00AE0BD92F6400831203138815D2
:101FBE000630AE00AE0BE12F640000308312031327
:101FCE00881B0130AE002E08AF0088110630AE001F
:101FDE00AE0BEF2F64008312031388150630AE008C
:101FEE00AE0BF72F64008312031388112F08FF2FF7
:021FFE000800D9
:02400E0021E0AF
:00000001FF
